{
  "contractName": "Pixtogram",
  "abi": [
    {
      "anonymous": false,
      "inputs": [
        {
          "indexed": false,
          "internalType": "uint256",
          "name": "id",
          "type": "uint256"
        },
        {
          "indexed": false,
          "internalType": "string",
          "name": "imgHash",
          "type": "string"
        },
        {
          "indexed": false,
          "internalType": "string",
          "name": "description",
          "type": "string"
        },
        {
          "indexed": false,
          "internalType": "uint256",
          "name": "tipAmount",
          "type": "uint256"
        },
        {
          "indexed": false,
          "internalType": "address payable",
          "name": "author",
          "type": "address"
        }
      ],
      "name": "ImageCreated",
      "type": "event"
    },
    {
      "inputs": [
        {
          "internalType": "address",
          "name": "",
          "type": "address"
        },
        {
          "internalType": "uint256",
          "name": "",
          "type": "uint256"
        }
      ],
      "name": "images",
      "outputs": [
        {
          "internalType": "uint256",
          "name": "id",
          "type": "uint256"
        },
        {
          "internalType": "string",
          "name": "imgHash",
          "type": "string"
        },
        {
          "internalType": "string",
          "name": "description",
          "type": "string"
        },
        {
          "internalType": "uint256",
          "name": "tipAmount",
          "type": "uint256"
        },
        {
          "internalType": "address payable",
          "name": "author",
          "type": "address"
        }
      ],
      "stateMutability": "view",
      "type": "function"
    },
    {
      "inputs": [],
      "name": "name",
      "outputs": [
        {
          "internalType": "string",
          "name": "",
          "type": "string"
        }
      ],
      "stateMutability": "view",
      "type": "function"
    },
    {
      "inputs": [],
      "name": "owner",
      "outputs": [
        {
          "internalType": "address",
          "name": "",
          "type": "address"
        }
      ],
      "stateMutability": "view",
      "type": "function"
    },
    {
      "inputs": [
        {
          "internalType": "string",
          "name": "_username",
          "type": "string"
        }
      ],
      "name": "registerUser",
      "outputs": [],
      "stateMutability": "nonpayable",
      "type": "function"
    },
    {
      "inputs": [],
      "name": "uploadImage",
      "outputs": [],
      "stateMutability": "nonpayable",
      "type": "function"
    }
  ],
  "bytecode": "0x60806040526040518060400160405280600981526020017f506978746f6772616d0000000000000000000000000000000000000000000000815250600090816200004a91906200031a565b5033600160006101000a81548173ffffffffffffffffffffffffffffffffffffffff021916908373ffffffffffffffffffffffffffffffffffffffff1602179055503480156200009957600080fd5b5062000401565b600081519050919050565b7f4e487b7100000000000000000000000000000000000000000000000000000000600052604160045260246000fd5b7f4e487b7100000000000000000000000000000000000000000000000000000000600052602260045260246000fd5b600060028204905060018216806200012257607f821691505b602082108103620001385762000137620000da565b5b50919050565b60008190508160005260206000209050919050565b60006020601f8301049050919050565b600082821b905092915050565b600060088302620001a27fffffffffffffffffffffffffffffffffffffffffffffffffffffffffffffffff8262000163565b620001ae868362000163565b95508019841693508086168417925050509392505050565b6000819050919050565b6000819050919050565b6000620001fb620001f5620001ef84620001c6565b620001d0565b620001c6565b9050919050565b6000819050919050565b6200021783620001da565b6200022f620002268262000202565b84845462000170565b825550505050565b600090565b6200024662000237565b620002538184846200020c565b505050565b5b818110156200027b576200026f6000826200023c565b60018101905062000259565b5050565b601f821115620002ca5762000294816200013e565b6200029f8462000153565b81016020851015620002af578190505b620002c7620002be8562000153565b83018262000258565b50505b505050565b600082821c905092915050565b6000620002ef60001984600802620002cf565b1980831691505092915050565b60006200030a8383620002dc565b9150826002028217905092915050565b6200032582620000a0565b67ffffffffffffffff811115620003415762000340620000ab565b5b6200034d825462000109565b6200035a8282856200027f565b600060209050601f8311600181146200039257600084156200037d578287015190505b620003898582620002fc565b865550620003f9565b601f198416620003a2866200013e565b60005b82811015620003cc57848901518255600182019150602085019450602081019050620003a5565b86831015620003ec5784890151620003e8601f891682620002dc565b8355505b6001600288020188555050505b505050505050565b610d5c80620004116000396000f3fe608060405234801561001057600080fd5b50600436106100575760003560e01c806306fdde031461005c5780632ac337921461007a578063704f1b94146100ae5780638da5cb5b146100ca578063e09fb119146100e8575b600080fd5b6100646100f2565b604051610071919061068e565b60405180910390f35b610094600480360381019061008f9190610758565b610180565b6040516100a59594939291906107c8565b60405180910390f35b6100c860048036038101906100c3919061095e565b6102f3565b005b6100d261036e565b6040516100df91906109b6565b60405180910390f35b6100f0610394565b005b600080546100ff90610a00565b80601f016020809104026020016040519081016040528092919081815260200182805461012b90610a00565b80156101785780601f1061014d57610100808354040283529160200191610178565b820191906000526020600020905b81548152906001019060200180831161015b57829003601f168201915b505050505081565b6002602052816000526040600020602052806000526040600020600091509150508060000154908060010180546101b690610a00565b80601f01602080910402602001604051908101604052809291908181526020018280546101e290610a00565b801561022f5780601f106102045761010080835404028352916020019161022f565b820191906000526020600020905b81548152906001019060200180831161021257829003601f168201915b50505050509080600201805461024490610a00565b80601f016020809104026020016040519081016040528092919081815260200182805461027090610a00565b80156102bd5780601f10610292576101008083540402835291602001916102bd565b820191906000526020600020905b8154815290600101906020018083116102a057829003601f168201915b5050505050908060030154908060040160009054906101000a900473ffffffffffffffffffffffffffffffffffffffff16905085565b60405180604001604052808281526020016000815250600360003373ffffffffffffffffffffffffffffffffffffffff1673ffffffffffffffffffffffffffffffffffffffff168152602001908152602001600020600082015181600001908161035d9190610bdd565b506020820151816001015590505050565b600160009054906101000a900473ffffffffffffffffffffffffffffffffffffffff1681565b6040518060a00160405280600360003373ffffffffffffffffffffffffffffffffffffffff1673ffffffffffffffffffffffffffffffffffffffff1681526020019081526020016000206001015481526020016040518060400160405280600481526020017f686173680000000000000000000000000000000000000000000000000000000081525081526020016040518060400160405280600b81526020017f6465736372697074696f6e000000000000000000000000000000000000000000815250815260200160008152602001600073ffffffffffffffffffffffffffffffffffffffff16815250600260003373ffffffffffffffffffffffffffffffffffffffff1673ffffffffffffffffffffffffffffffffffffffff1681526020019081526020016000206000600360003373ffffffffffffffffffffffffffffffffffffffff1673ffffffffffffffffffffffffffffffffffffffff1681526020019081526020016000206001015481526020019081526020016000206000820151816000015560208201518160010190816105309190610bdd565b5060408201518160020190816105469190610bdd565b506060820151816003015560808201518160040160006101000a81548173ffffffffffffffffffffffffffffffffffffffff021916908373ffffffffffffffffffffffffffffffffffffffff160217905550905050600360003373ffffffffffffffffffffffffffffffffffffffff1673ffffffffffffffffffffffffffffffffffffffff16815260200190815260200160002060010160008154809291906105ee90610cde565b9190505550565b600081519050919050565b600082825260208201905092915050565b60005b8381101561062f578082015181840152602081019050610614565b8381111561063e576000848401525b50505050565b6000601f19601f8301169050919050565b6000610660826105f5565b61066a8185610600565b935061067a818560208601610611565b61068381610644565b840191505092915050565b600060208201905081810360008301526106a88184610655565b905092915050565b6000604051905090565b600080fd5b600080fd5b600073ffffffffffffffffffffffffffffffffffffffff82169050919050565b60006106ef826106c4565b9050919050565b6106ff816106e4565b811461070a57600080fd5b50565b60008135905061071c816106f6565b92915050565b6000819050919050565b61073581610722565b811461074057600080fd5b50565b6000813590506107528161072c565b92915050565b6000806040838503121561076f5761076e6106ba565b5b600061077d8582860161070d565b925050602061078e85828601610743565b9150509250929050565b6107a181610722565b82525050565b60006107b2826106c4565b9050919050565b6107c2816107a7565b82525050565b600060a0820190506107dd6000830188610798565b81810360208301526107ef8187610655565b905081810360408301526108038186610655565b90506108126060830185610798565b61081f60808301846107b9565b9695505050505050565b600080fd5b600080fd5b7f4e487b7100000000000000000000000000000000000000000000000000000000600052604160045260246000fd5b61086b82610644565b810181811067ffffffffffffffff8211171561088a57610889610833565b5b80604052505050565b600061089d6106b0565b90506108a98282610862565b919050565b600067ffffffffffffffff8211156108c9576108c8610833565b5b6108d282610644565b9050602081019050919050565b82818337600083830152505050565b60006109016108fc846108ae565b610893565b90508281526020810184848401111561091d5761091c61082e565b5b6109288482856108df565b509392505050565b600082601f83011261094557610944610829565b5b81356109558482602086016108ee565b91505092915050565b600060208284031215610974576109736106ba565b5b600082013567ffffffffffffffff811115610992576109916106bf565b5b61099e84828501610930565b91505092915050565b6109b0816106e4565b82525050565b60006020820190506109cb60008301846109a7565b92915050565b7f4e487b7100000000000000000000000000000000000000000000000000000000600052602260045260246000fd5b60006002820490506001821680610a1857607f821691505b602082108103610a2b57610a2a6109d1565b5b50919050565b60008190508160005260206000209050919050565b60006020601f8301049050919050565b600082821b905092915050565b600060088302610a937fffffffffffffffffffffffffffffffffffffffffffffffffffffffffffffffff82610a56565b610a9d8683610a56565b95508019841693508086168417925050509392505050565b6000819050919050565b6000610ada610ad5610ad084610722565b610ab5565b610722565b9050919050565b6000819050919050565b610af483610abf565b610b08610b0082610ae1565b848454610a63565b825550505050565b600090565b610b1d610b10565b610b28818484610aeb565b505050565b5b81811015610b4c57610b41600082610b15565b600181019050610b2e565b5050565b601f821115610b9157610b6281610a31565b610b6b84610a46565b81016020851015610b7a578190505b610b8e610b8685610a46565b830182610b2d565b50505b505050565b600082821c905092915050565b6000610bb460001984600802610b96565b1980831691505092915050565b6000610bcd8383610ba3565b9150826002028217905092915050565b610be6826105f5565b67ffffffffffffffff811115610bff57610bfe610833565b5b610c098254610a00565b610c14828285610b50565b600060209050601f831160018114610c475760008415610c35578287015190505b610c3f8582610bc1565b865550610ca7565b601f198416610c5586610a31565b60005b82811015610c7d57848901518255600182019150602085019450602081019050610c58565b86831015610c9a5784890151610c96601f891682610ba3565b8355505b6001600288020188555050505b505050505050565b7f4e487b7100000000000000000000000000000000000000000000000000000000600052601160045260246000fd5b6000610ce982610722565b91507fffffffffffffffffffffffffffffffffffffffffffffffffffffffffffffffff8203610d1b57610d1a610caf565b5b60018201905091905056fea2646970667358221220472b6c339e8bb88c61232f52685e631b539be309aa71b6f0f8572909b363dad264736f6c634300080f0033",
  "immutableReferences": {},
  "source": "// SPDX-License-Identifier: MIT\r\npragma solidity >=0.4.22 <0.9.0;\r\n\r\ncontract Pixtogram {\r\n    string public name = \"Pixtogram\";\r\n  address public owner = msg.sender;\r\n  mapping(address => mapping(uint => Image)) public images;\r\n  mapping(address => User) users;\r\n\r\n  struct Image {\r\n    uint id;\r\n    string imgHash;\r\n    string description;\r\n    uint tipAmount;\r\n    address payable author;\r\n  }\r\n    struct User {\r\n    string username;\r\n    uint imgCount;\r\n  }\r\n    event ImageCreated (\r\n    uint id,\r\n    string imgHash,\r\n    string description,\r\n    uint tipAmount,\r\n    address payable author\r\n    );\r\n\r\n  function registerUser(string memory _username) public {\r\n    users[msg.sender] = User(_username, 0);\r\n  }\r\n\r\nfunction uploadImage() public {\r\n    // string memory _imgHash, string memory _description\r\n    images[msg.sender][users[msg.sender].imgCount] = Image(users[msg.sender].imgCount, \"hash\", \"description\", 0, payable(address(0x0)));\r\n    users[msg.sender].imgCount++;\r\n    // emit ImageCreated(users[msg.sender].imgCount, \"hash\", \"description\", 0, payable(address(0x0)));\r\n}\r\n\r\n}\r\n",
  "sourcePath": "C:\\Users\\User\\Documents\\New folder (2)\\programming files\\Github\\pixtogram\\smart_contract\\contracts\\Pixtogram.sol",
  "compiler": {
    "name": "solc",
    "version": "0.8.15+commit.e14f2714.Emscripten.clang"
  },
  "schemaVersion": "3.4.8",
  "updatedAt": "2022-07-16T23:16:32.220Z",
  "devdoc": {
    "kind": "dev",
    "methods": {},
    "version": 1
  },
  "userdoc": {
    "kind": "user",
    "methods": {},
    "version": 1
  }
}